{
    "_format": "hh-sol-artifact-1",
    "contractName": "PingPong",
    "sourceName": "contracts/playground/PingPong.sol",
    "abi": [
        {
            "inputs": [],
            "stateMutability": "nonpayable",
            "type": "constructor"
        },
        {
            "anonymous": false,
            "inputs": [
                {
                    "indexed": false,
                    "internalType": "address",
                    "name": "pinger",
                    "type": "address"
                }
            ],
            "name": "NewPinger",
            "type": "event"
        },
        {
            "anonymous": false,
            "inputs": [],
            "name": "Ping",
            "type": "event"
        },
        {
            "anonymous": false,
            "inputs": [
                {
                    "indexed": false,
                    "internalType": "bytes32",
                    "name": "txHash",
                    "type": "bytes32"
                }
            ],
            "name": "Pong",
            "type": "event"
        },
        {
            "inputs": [
                {
                    "internalType": "address",
                    "name": "_pinger",
                    "type": "address"
                }
            ],
            "name": "changePinger",
            "outputs": [],
            "stateMutability": "nonpayable",
            "type": "function"
        },
        {
            "inputs": [],
            "name": "ping",
            "outputs": [],
            "stateMutability": "nonpayable",
            "type": "function"
        },
        {
            "inputs": [],
            "name": "pinger",
            "outputs": [
                {
                    "internalType": "address",
                    "name": "",
                    "type": "address"
                }
            ],
            "stateMutability": "view",
            "type": "function"
        },
        {
            "inputs": [
                {
                    "internalType": "bytes32",
                    "name": "_txHash",
                    "type": "bytes32"
                }
            ],
            "name": "pong",
            "outputs": [],
            "stateMutability": "nonpayable",
            "type": "function"
        }
    ],
    "bytecode": "0x608060405234801561001057600080fd5b50600080546001600160a01b0319163317905561027f806100326000396000f3fe608060405234801561001057600080fd5b506004361061004c5760003560e01c806305ba79a2146100515780630860f3b0146100665780635c36b18614610079578063b97399f514610081575b600080fd5b61006461005f3660046101b5565b6100aa565b005b6100646100743660046101ce565b6100e1565b610064610160565b600054610094906001600160a01b031681565b6040516100a191906101fe565b60405180910390f35b6040518181527f67050610046771547cf1d6e467b904ccfc523370eebc895dad1d9a73349b9804906020015b60405180910390a150565b6000546001600160a01b031633146101145760405162461bcd60e51b815260040161010b90610212565b60405180910390fd5b600080546001600160a01b0319166001600160a01b0383169081179091556040517f2f370de2916d79e147ab3994047775d4c93d478ac1f844ce0b1c4bcfba364277916100d6916101fe565b6000546001600160a01b0316331461018a5760405162461bcd60e51b815260040161010b90610212565b6040517fca6e822df923f741dfe968d15d80a18abd25bd1e748bcb9ad81fea5bbb7386af90600090a1565b6000602082840312156101c757600080fd5b5035919050565b6000602082840312156101e057600080fd5b81356001600160a01b03811681146101f757600080fd5b9392505050565b6001600160a01b0391909116815260200190565b6020808252601e908201527f4f6e6c79207468652070696e6765722063616e2063616c6c20746869732e000060408201526060019056fea2646970667358221220376e02b599453c541ec1d8b4678f366749bf3f8d7f87e4a494260fe40034251964736f6c63430008120033",
    "linkReferences": {},
    "deployedLinkReferences": {}
}